:100000000C9434000C943E000C943E000C943E0082
:100010000C943E000C943E000C943E000C943E0068
:100020000C943E000C943E000C943E000C943E0058
:100030000C943E000C943E000C943E000C943E0048
:100040000C943E000C943E000C943E000C943E0038
:100050000C943E000C943E000C943E000C943E0028
:100060000C943E000C943E0011241FBECFEFD8E04C
:10007000DEBFCDBF0E9470000C94A6000C9400005F
:10008000209A5098589A5198599A089580E48093EC
:100090007C0087E880937A00089590917C00987F97
:1000A00090937C0090917C008770892B80937C00DA
:1000B00080917A00806480937A0080917A0084FD38
:1000C00009C080917A00806180937A0080917A00E3
:1000D00084FFF7CF2091780030917900C90108950D
:1000E0000E94400080E480937C0087E880937A003F
:1000F00040E951E080917C00887F80937C00809172
:100100007C00816080937C0080917A008064809381
:100110007A0080917A0084FD09C080917A00806124
:1001200080937A0080917A0084FFF7CF80917800E5
:100130009091790020E030E0CA010197F1F72F5F3C
:100140003F4F87E0203D3807B9F7D4CFF894FFCF71
:00000001FF
