:100000000C9434000C943E000C943E000C943E0082
:100010000C943E000C943E000C943E000C943E0068
:100020000C943E000C943E000C943E000C943E0058
:100030000C943E000C943E000C943E000C943E0048
:100040000C943E000C943E000C943E000C943E0038
:100050000C943E000C943E000C943E000C943E0028
:100060000C943E000C943E0011241FBECFEFD8E04C
:10007000DEBFCDBF0E94D6010C940A020C94000092
:10008000209A5098589A5198599A089580E48093EC
:100090007C0087E880937A00089590917C00987F97
:1000A00090937C0090917C008770892B80937C00DA
:1000B00080917A00806480937A0080917A0084FF36
:1000C000FCCF80917A00806180937A002091780043
:1000D00030917900C9010895E0E8F0E080818368FB
:1000E0008083E1E8F0E080818B608083219A08952D
:1000F000DF93CF93CDB7DEB72A970FB6F894DEBF64
:100100000FBECDBF9C01893C9105D8F58AEA90E0ED
:10011000909389008093880082E3898380E38A83B7
:1001200080EB8B8383E48C8380E28D831E8282E369
:1001300090E00E94CE018A81992787FD90950E94C8
:10014000CE018B81992787FD90950E94CE018C81ED
:10015000992787FD90950E94CE018D81992787FD73
:1001600090950E94CE0180E090E00E94CE0188EC44
:1001700090E020E931E0F9013197F1F70197D9F7E3
:10018000F2C0825D904083529140B8F586E891E0DC
:10019000909389008093880082E3898385E38A8332
:1001A00080EB8B8383E48C8380E28D831E8282E3E9
:1001B00090E00E94CE018A81992787FD90950E9448
:1001C000CE018B81992787FD90950E94CE018C816D
:1001D000992787FD90950E94CE018D81992787FDF3
:1001E00090950E94CE0188EC90E020E931E0F90181
:1001F0003197F1F70197D9F7B6C0C9018E5F9140E9
:100200008F3B9105D8F58EE992E090938900809319
:10021000880082E3898389E38A8380EB8B8383E48C
:100220008C8380E28D831E8282E390E00E94CE0167
:100230008A81992787FD90950E94CE018B8199270D
:1002400087FD90950E94CE018C81992787FD90951E
:100250000E94CE018D81992787FD90950E94CE0145
:1002600080E090E00E94CE0188EC90E020E931E04F
:10027000F9013197F1F70197D9F775C0265C324043
:100280002B533140D0F58AEC93E090938900809312
:10029000880083E389838A8380EB8B8383E48C8368
:1002A00080E28D831E8283E390E00E94CE018A81EA
:1002B000992787FD90950E94CE018B81992787FD14
:1002C00090950E94CE018C81992787FD90950E9480
:1002D000CE018D81992787FD90950E94CE0180E007
:1002E00090E00E94CE0188EC90E020E931E0F90135
:1002F0003197F1F70197D9F736C010928900109223
:1003000088008FE4898386E48A838B8380E28C83F0
:100310008D831E828FE490E00E94CE018A8199270E
:1003200087FD90950E94CE018B81992787FD90953E
:100330000E94CE018C81992787FD90950E94CE0165
:100340008D81992787FD90950E94CE0180E090E0F5
:100350000E94CE0188EC90E020E931E0F90131976C
:10036000F1F70197D9F72A960FB6F894DEBF0FBEC2
:10037000CDBFCF91DF9108958093C4009093C500C5
:1003800086E48093C20088ED8093C1000895809137
:10039000C00087FFFCCF8091C6000895982F809100
:1003A000C00085FFFCCF9093C6000895CF93DF93E4
:1003B0000E9440000E9446000E946C0087E690E088
:1003C0000E94BC01C0E9D1E0489917C0499915C005
:1003D00088EC90E0FE013197F1F70197D9F7289A60
:1003E00081E00E944D000E94780080ED97E0FE01C0
:1003F0003197F1F70197D9F7E7CF88EC90E0FE014C
:100400003197F1F70197D9F710928900109288007F
:080410002898DACFF894FFCF21
:00000001FF
