:100000000C9434000C943E000C943E000C943E0082
:100010000C943E000C943E000C943E000C943E0068
:100020000C943E000C943E000C943E000C943E0058
:100030000C943E000C943E000C943E000C943E0048
:100040000C943E000C943E000C943E000C943E0038
:100050000C943E000C943E000C943E000C943E0028
:100060000C943E000C943E0011241FBECFEFD8E04C
:10007000DEBFCDBF0E94D1000C9401010C940000A2
:10008000209A5098589A5198599A089580E48093EC
:100090007C0087E880937A00089590917C00987F97
:1000A00090937C0090917C008770892B80937C00DA
:1000B00080917A00806480937A0080917A0084FF36
:1000C000FCCF80917A00806180937A002091780043
:1000D00030917900C9010895E0E8F0E080818368FB
:1000E0008083E1E8F0E080818B608083219A08952D
:1000F0009C01893C910580F48AEA90E09093890004
:100100008093880088EC90E020E931E0F901319794
:10011000F1F70197D9F70895825D9040835291409D
:1001200080F486E891E0909389008093880088ECC1
:1001300090E020E931E0F9013197F1F70197D9F723
:100140000895C9018E5F91408F3B910580F481EA4B
:1001500092E0909389008093880088EC90E020E9F9
:1001600031E0F9013197F1F70197D9F70895265C4D
:1001700032402B53314080F48DEC93E09093890012
:100180008093880088EC90E020E931E0F901319714
:10019000F1F70197D9F7089510928900109288001D
:1001A0000895CF93DF930E9440000E9446000E9472
:1001B0006C00C0E9D1E0489917C0499915C088EC96
:1001C00090E0FE013197F1F70197D9F7289A81E085
:1001D0000E944D000E94780080ED97E0FE0131976B
:1001E000F1F70197D9F7E7CF88EC90E0FE0131975E
:1001F000F1F70197D9F7109289001092880028989A
:06020000DACFF894FFCFF5
:00000001FF
